:1000000000308A0018280000213084008313000883
:10001000031917280630F800F701F70B0D28F80B25
:100020000C287B30F700F70B1328800B0A280800F8
:1000300003081F398300A001831603170908C0397C
:10004000890003131F129F120030031788008312C8
:10005000870188018901831300308316031386000A
:10006000FF3085000515831205194728A00A83165D
:1000700086018312200886000530A1000420831623
:1000800005158312051D3F280530A10004208316A5
:0400900032286300AF
:04400E00E22FFF3F5F
:00000001FF
;PIC16F887
;CRC=77CA  CREATED="29-ago.-23 14:31"
