:1000000000308A0021280000003083168600FF306F
:10001000850083128A110A12372821308400831345
:100020000008031920280630F800F701F70B1628FE
:10003000F80B15287B30F700F70B1C28800B1328D2
:10004000080003081F398300A0018316031709085D
:10005000C039890003131F129F1200300317880054
:1000600083128701880189018313031304288316EF
:100070000515831205194D28A00A831686018312DF
:10008000200886000530A1000D2083160515831277
:0E009000051D45280530A1000D20372863000E
:04400E00E22FFF3F5F
:00000001FF
;PIC16F887
;CRC=BD20  CREATED="24-feb.-22 10:23"
