:1000000000308A0018280000213084008313000883
:10001000031917280630F800F701F70B0D28F80B25
:100020000C287B30F700F70B1328800B0A280800F8
:1000300003081F398300A00183161F149F141F1586
:100040009F1107309C00831300308600FF3085002D
:100050000515831205193D28A00A8316860183120F
:10006000200886000530A1000420831605158312A0
:10007000051D35280530A1000420831628286300BB
:02400E00723FFF
:00000001FF
;PIC16F877A
;CRC=D006  CREATED="29-ago.-23 14:32"
