:1000000000308A0021280000003083168600FF306F
:10001000850083128A110A122F282130840083134D
:100020000008031920280630F800F701F70B1628FE
:10003000F80B15287B30F700F70B1C28800B1328D2
:10004000080003081F398300A00183161F149F14A2
:100050001F159F1107309C008313831204288316F9
:100060000515831205194528A00A831686018312F7
:10007000200886000530A1000D2083160515831287
:0E008000051D3D280530A1000D202F2863002E
:02400E00723FFF
:00000001FF
;PIC16F877A
;CRC=402A  CREATED="24-feb.-22 10:25"
